:100000003BC05FC05EC05DC05CC05BC05AC059C031
:1000100058C057C056C0C6C454C053C052C051C0C7
:1000200050C04FC04EC04DC04CC04BC04AC049C06C
:1000300048C047C00A46253375000A452E507262F3
:10004000000A452E462E4C4F000A452E72454600AA
:100050000A382E382E382E382E000A25342E3364D6
:1000600008082E000A2D4F4C2D000A5A45724F00E9
:100070000A5348497400060811241FBECFEFD4E08C
:10008000DEBFCDBF11E0A0E0B1E0EEE2F2E102C0E0
:1000900005900D92AC36B107D9F721E0ACE6B1E09E
:1000A00001C01D92A038B207E1F710E0CCE3D0E028
:1000B00003C02197FE0104D8CB33D107D1F7A8D5CF
:1000C0000CC89ECF2A98229AFFCFCF93DF93DC01F2
:1000D00017968C911797EFEFE80F811101C0E0E0C0
:1000E000683029F16A30B9F06D30E1F0962F9D7FCC
:1000F0009C3251F1843000F590E060323CF0605267
:10010000E62F660FFF0BEF5FFE4F9081FD01E80FBA
:10011000F11D928313C084E0FD013296EF01199224
:100120008A95E9F717961C92DF91CF91089517965B
:10013000EC93DF91CF9108958F3FB1F38F5F1796C6
:100140008C93DF91CF910895E43070F7EA0FFB2F85
:10015000F11D828181608283E7CF90917601EFEF7C
:10016000E90F911101C0E0E0883031F18A30D1F01F
:100170008D30F9F0282F2D7F2C3221F19430F8F4B6
:1001800080324CF18052E82F880FFF0BEF5FFE4F5B
:100190008081E92FF0E0E159FE4F82839F5F9093C9
:1001A00076010895E1E7F1E084E0DF011D928A9590
:1001B000E9F7109276010895E093760108959F3F44
:1001C00069F70895E43068F7F0E0E159FE4F828165
:1001D00081608283089580E0DCCF2F923F924F921E
:1001E0005F926F927F928F929F92AF92BF92CF92C7
:1001F000DF92EF92FF920F931F93CF93DF93CDB7D0
:10020000DEB7C650D1400FB6F894DEBF0FBECDBFEB
:10021000FC015B017C012FEFE21AF20A849181114B
:100220000CC0CDC09ADF87017801FFEFEF1AFF0AFB
:10023000F8018491882309F4C2C0853299F7712CA2
:10024000CB5FDE4F1882C550D140912C30E2C32ED7
:1002500097012F5F3F4FF7018491E82F8D3209F40A
:1002600074C040F4803219F18B3249F5992493948B
:100270007901EECF8033B9F08D3309F06BC3F2E032
:10028000EF0EF11CF9012491C22E222309F497C02C
:10029000FAE29701CF12ECCFD501CC90F50132965E
:1002A0005F017901D5CF40E3C42E7901D1CF41E080
:1002B000CB5FDE4F4883C550D1407901C9CF882339
:1002C00009F47DC08A3209F044C0C5010296D50107
:1002D000DC9087010E5F1F4FF9012491522E5C01C3
:1002E000552009F46CC0FEE25F16C9F12CE65216E7
:1002F00009F45AC0EBEDE50DE43508F095CF0E2E6C
:10030000000CFF0BE159F74F0994772009F4E9C27B
:10031000D5018C9122DFB1E0FF24F394BD1508F0E4
:10032000EDC28C2D1ADFF394FD10FBCFE7C2809154
:100330007601843008F077C0E82FF0E0E159FE4FF5
:1003400012828F5F809376016FCF77247394790147
:100350007FCF582E8901D12CFEE25F12C7CFC80192
:100360000196F8012491E22F522EFAE22F1341C098
:1003700095012E5F3F4FD501FC900E5F1F4FFC0192
:100380008491582E5901FCE680E05F1671F05520EB
:10039000B1F0EBEDE50DE43508F046CF0E2E000C84
:1003A000FF0BED53F74F0994F12C98012F5F3F4F4E
:1003B000F8018491582E890181E05110EACFCA5F7B
:1003C000DE4F0FB6F894DEBF0FBECDBFDF91CF91E9
:1003D0001F910F91FF90EF90DF90CF90BF90AF9063
:1003E0009F908F907F906F905F904F903F902F9055
:1003F000089520ED2E0F8C01F12C2A3020F6F12CDF
:100400002F2D220F220F2F0D220FE053FE2EF20E62
:100410000196FC013197E49120ED2E0F2A3080F3F4
:100420005E2E8C01B0CF8F3F09F4FECE8ACF882399
:1004300009F4A0C1F50181919191A191B191CF5F92
:10044000DE4F88839983AA83BB83C150D1405F016B
:100450002AE0222E312C412C512C812CB7FF16C0C2
:10046000B095A095909581959F4FAF4FBF4FCF5FAF
:10047000DE4F88839983AA83BB83C150D1403AE081
:10048000232E312C412C512C8824839487E2682E12
:10049000E12C29C0605D6083CF5FDE4F8881998148
:1004A000AA81BB81C150D14082159305A405B50531
:1004B00008F444C0CA5FDE4FE880C650D140CF5F29
:1004C000DE4F2883C150D140CE5FDE4F3883C2500B
:1004D000D140CD5FDE4F4883C350D140CC5FDE4F6B
:1004E0005883C450D140CF5FDE4F688179818A81C3
:1004F0009B81C150D140A201910198D591E09E0D00
:10050000CA5FDE4F9883C650D140E1E0F0E0EC0FC7
:10051000FD1FEE0DF11D6A300CF4BCCF660D605D61
:100520006083CF5FDE4F88819981AA81BB81C150F2
:10053000D1404097A105B10508F0BCCFCA5FDE4F9E
:100540009881C650D1409F1508F011C1A92F4FEFD7
:100550004F0D491B50E04F5F5F4F60E370E081E05B
:1005600090E08C0F9D1F8A0F911DB0D58110D1C0D6
:100570009110FAC0CB5FDE4FB881C550D14090E0FA
:1005800080E2B111C8C0EF2C772009F4D4C0FF205D
:1005900059F0FE01EF0DF11D8081DFDDFA94F110BD
:1005A000F8CF772009F440CEED1408F03DCE8C2D25
:1005B000D4DDE394ED10FBCF37CED501EC9011964E
:1005C0006C904501B2E08B0E911CFF2009F401C133
:1005D000F3E7EE2D5F1609F405C1F62D80E005C0A6
:1005E0008F5F31968F1509F498C194919111F8CFCE
:1005F000772009F4ADC1F82E882309F483C1AE2C0D
:10060000B62CE12CF5018491A8DDE394FFEFAF1A3D
:10061000BF0AEF14B8F3711076C1540105CE8823D8
:1006200009F430C1F5012191319141915191CF5F90
:10063000DE4F288339834A835B83C150D1405F01F9
:1006400090E1292E312C412C512C812C97E0692EE0
:100650001FCF882309F42EC1F50181919191A191B9
:10066000B191CF5FDE4F88839983AA83BB83C1504A
:10067000D1405F01F0E12F2E312C412C512C812CE7
:1006800005CF882309F4CEC0F50181919191A19104
:10069000B191CF5FDE4F88839983AA83BB83C1501A
:1006A000D1405F01B2E02B2E312C412C512C812CFA
:1006B000EDCE882309F4CEC0F50181919191A191ED
:1006C000B191CF5FDE4F88839983AA83BB83C150EA
:1006D000D1405F017AE0272E312C412C512C812C06
:1006E000D5CE882309F45AC0F50181919191A19149
:1006F000B191CF5FDE4F88839983AA83BB83C150BA
:10070000D1405F0158E0252E312C412C512C812CF9
:10071000BDCE92E08DE2EE24E394EF0CE0E3CE1642
:10072000A9F0E1E0F0E0EC0FFD1FEF0DF11D80837B
:10073000FE2C71102CCF9E2CED1428F48C2D0DDD89
:1007400093949D10FBCFF11024CF6ECD8091760154
:10075000843008F0F4C0E82FF0E0E159FE4F9283B6
:100760008F5F8093760110CF90E08BE2D4CFF92E8B
:10077000FDCEF12CF501819191919C01990F440BD3
:10078000550BCF5FDE4F288339834A835B83C1508B
:10079000D1405F01DA01C9015BCEF12CF5018191F5
:1007A00091919C01990F440B550BCF5FDE4F28832D
:1007B00039834A835B83C150D1405F0148E0242ED6
:1007C000312C412C512C812C61CE95012E5F3F4F55
:1007D0004901F501E08061802EEFF22EF3E7EE2D66
:1007E0005F12FBCEF62D80E004C08F5F8F1509F4F9
:1007F000AAC091919111F9CF772009F4A9C0F82EE0
:10080000882309F47FC0AE2CB62CE12CD5018D9144
:100810005D01A3DCE394EF14C8F3772009F4FDCE67
:1008200072C0F12CF501819191919C01990F440BBB
:10083000550BCF5FDE4F288339834A835B83C150DA
:10084000D1405F01A2E02A2E312C412C512C812C69
:100850001DCEF12CF501819191919C01990F440BD2
:10086000550BCF5FDE4F288339834A835B83C150AA
:10087000D1405F016AE0262E312C412C512C812C75
:1008800005CEF12CF501819191919C01990F440BBA
:10089000550BCF5FDE4F288339834A835B83C1507A
:1008A000D1405F0180E1282E312C412C512C812C2C
:1008B000CDCEF12CF501819191919C01990F440BC2
:1008C000550BCF5FDE4F288339834A835B83C1504A
:1008D000D1405F01E0E12E2E312C412C512C812C96
:1008E000D5CDB1E0FF24F394BD1528F48C2D35DC73
:1008F000F394FD10FBCFF50180812FDCE2E0AE0E1A
:10090000B11C92CCF12CFD1408F087CE8C2D25DC87
:10091000F394FD10FBCF540187CC711070CEFD1401
:1009200030F4BF2C8C2D19DCB394BD10FBCFFF200D
:1009300009F473CE23E7521609F465CF60CE8F3FDA
:1009400009F422CE0DCF71105ECFFD1450F35BCFB2
:10095000F82EE5CF582E80ED8E0F8901D12C8A30EC
:1009600008F0C1CC8D2D880F880F8D0D880FE053B6
:10097000DE2ED80E0F5F1F4FF8013197E49180ED06
:100980008E0F8A3078F35E2EABCCCF93DF93CDB74A
:10099000DEB7BE01675F7F4F8F8198851EDCDF91D8
:1009A000CF9108950F920FB60F921F9211242F939B
:1009B0003F934F935F938F939F93EF93FF93809118
:1009C0007E0190917F018F719927892B09F441C095
:1009D00080917C0183FF1BC02091780030917900C9
:1009E00040917A0150917B01240F351F30937B0198
:1009F00020937A01909179019F5F909379019034CF
:100A000009F4B1C010927C0086EC80937A0080914A
:100A10007E0190917F0180FF37C09C0133702115CA
:100A2000310529F420916E012F5F20936E0101960C
:100A300090937F0180937E01FF91EF919F918F9121
:100A40005F914F913F912F911F900F900FBE0F908C
:100A5000189596B192FB992790F98091000189171A
:100A600009F4B4C0811109C090917D01903128F43E
:100A700090917C01916090937C0191E08927809313
:100A8000000110927D01A4CF8091750190E0FC01DE
:100A9000E959FE4F3081232F2695269526954FEF55
:100AA000420F433008F476C00196837099278093F3
:100AB000750181599E4FFC01828195B187FD84C0EB
:100AC0009F7795B9279A9BB186FF93C090629BB997
:100AD000559A9BB185FF9AC098609BB9539A95B17E
:100AE00084FF92C0916095B9209A9BB183FF8AC020
:100AF00090619BB9549A9BB182FF82C090689BB968
:100B0000579A95B181FF7AC0926095B9219A80FF7A
:100B100072C08BB182608BB9519AE0917501F0E09F
:100B2000E959FE4F2081822F8695869586959FEF05
:100B3000980F933098F490E0FC01EE0FFF1FE80F40
:100B4000F91F277081E090E001C0880F2A95EAF72D
:100B500092A1982B92A391A1892B81A380917E01D0
:100B600090917F015ACF0024220F331F001C220FC7
:100B7000331F001C232F302D3093780120937701F1
:100B8000846080937C0110927B0110927A01109214
:100B9000790138CF822F90E0FC01EE0FFF1FE80FA4
:100BA000F91F377081E090E001C0880F3A95EAF7AD
:100BB000282F209592A1922392A391A1892B81A302
:100BC0008091750190E070CF90687BCF811100CF4C
:100BD00080917D01813108F0FBCE8F5F80937D0194
:100BE000803109F0F5CE80917C01826080937C0198
:100BF000EFCE9F7D6CCF8BB18D7F8DCF9D7F85CFCD
:100C00009F777DCF9F7E75CF9E7F6DCF977F65CF7E
:100C100000D000D0CDB7DEB72A9A229A3B98439AEB
:100C20003C98449A3D98459A80E880BF8BE3809336
:100C30007E0083E080937F0086EE809364001092B4
:100C400080008BE08093810089E790E09093890099
:100C50008093880082E080936F002E98269A5E9899
:100C6000569A5A98529A5898509A789480E590E0FB
:100C70009F938F938FE691E09F938F9386DE2FEF64
:100C800084E39CE0215080409040E1F700C00000E8
:100C900080917C0183FBEE27E0F9877F80937C01C4
:100CA0000F900F900F900F9090E420E030E07EE0E6
:100CB00066EC70937C0060937A0080917A0086FFE6
:100CC00004C080917A0086FDFCCF4091780050915D
:100CD0007900240F351F91509111EBCF40917C0189
:100CE000E0FB43F940937C01C9010024880F991F60
:100CF000001C880F991F001C892F902D8153934051
:100D0000873B910508F069C1477F40937C0190E4DF
:100D100020E030E071E066EC70937C0060937A0034
:100D200080917A0086FF04C080917A0086FDFCCF16
:100D30004091780050917900240F351F9150911106
:100D4000EBCF80917C01E0FB83F980937C01D9019A
:100D50000024AA0FBB1F001CAA0FBB1F001CAB2F37
:100D6000B02D203C334A08F44EC1877F80937C012C
:100D700090E420E030E066EC10927C0060937A0012
:100D800080917A0086FF04C080917A0086FDFCCFB6
:100D90004091780050917900240F351F91509111A6
:100DA000EBCF80917C01E0FB83F980937C010024F0
:100DB000220F331F001C220F331F001C232F302D46
:100DC00030936D0120936C012C3E82E0380708F4CB
:100DD00017C12F3F334009F413C184E68A9F900165
:100DE0008B9F300D11242C5D3F4F36952795A3E046
:100DF000B7E15AD19695879596958795969587955B
:100E00009F938F9384E390E09F938F938FE691E07D
:100E10009F938F93BADD2FEF84E39CE021508040B5
:100E20009040E1F700C0000088E080937C010F90C3
:100E30000F900F900F900F900F90C12CD12C30E796
:100E4000E32E30E0F32E0AE610E044E6242E40E0E4
:100E5000342E8CC0A4EDB3E027D169837A838B83D1
:100E60009C83A5019401241935094609570900D12D
:100E700049015A01811420E89206A104B1040CF042
:100E800093C089EC881691040CF08EC01F930F93C9
:100E90008FE691E09F938F9378DD0F900F900F90E6
:100EA0000F90640110926E018FEF94E32CE081505B
:100EB00090402040E1F700C0000080917C018D7FD0
:100EC00080937C0182FF4EC080906C0190906D01F8
:100ED0008FB7F89420917701309178018FBF290165
:100EE000612C712CA12CB12C481459046A047B0488
:100EF0000CF066C0A4EDB3E0D7D069837A838B830E
:100F00009C83A50194012419350946095709B0D0DD
:100F1000DA01C9018C199D09A109B109811520E8DF
:100F20009207A105B1050CF04BC0803127E2920772
:100F30000CF046C09F938F938AE590E09F938F9328
:100F40008FE691E09F938F9320DD10926E010F90BA
:100F50000F900F900F900F900F9080917C018B7FDE
:100F600080937C0180917C0180FD36C080916E0170
:100F7000853B90F580917C0181FFA4CF80906C012E
:100F800090906D018FB7F89420917701309178019E
:100F90008FBF2901612C712CA12CB12C481459044C
:100FA0006A047B040CF456CFFF92EF928FE691E037
:100FB0009F938F93EADC0F900F900F900F9072CF5A
:100FC0003F922F928FE691E09F938F93DEDC0F90FC
:100FD0000F900F900F90C1CF75D889E490E09F9348
:100FE0008F938FE691E09F938F93CFDC2FEF89E66D
:100FF00098E1215080409040E1F700C0000062D8A5
:101000008AE390E0ECCF81E490E0E9CFEFE6F1E015
:1010100085E691E09183808316821782E1E7F1E013
:1010200084E0DF011D928A95E9F70895A1E21A2E66
:10103000AA1BBB1BFD010DC0AA1FBB1FEE1FFF1F7C
:10104000A217B307E407F50720F0A21BB30BE40BCC
:10105000F50B661F771F881F991F1A9469F7609513
:101060007095809590959B01AC01BD01CF010895CD
:10107000052E97FB16F400940FD057FD05D0D6DF50
:1010800007FC02D046F408C0509540953095219554
:101090003F4F4F4F5F4F08959095809570956195A4
:1010A0007F4F8F4F9F4F0895A29FB001B39FC00104
:1010B000A39F01D0B29F700D811D1124911D089531
:1010C000EE0FFF1F0590F491E02D0994DC0101C0A3
:1010D0006D9341505040E0F70895F894FFCF27C931
:1010E000A3C8A2C8A1C8A0C89FC89EC89DC89CC8C4
:1010F0009BC89AC899C898C897C896C895C894C8F4
:1011000093C892C891C890C88FC88EC88DC88CC823
:101110008BC88AC889C888C887C886C885C884C853
:1011200083C882C881C880C87FC87EC87DC87CC883
:101130007BC87AC879C878C877C847CB75C874C8DF
:1011400073C872C89ECB70C86FC86EC86DC86CC8B3
:101150006BC86AC869C868C864CBD7C80ACB64C8FA
:1011600063C862C861C805CB5FC85EC85DC85CC89B
:101170005BC813CB59C858C857C827CB55C869CBCB
:1011800053C852C896CBD3C84FC84EC84DC84CC8D8
:101190004BC84AC849C848C847C846C845C844C8D3
:1011A00043C842C841C840C83FC83EC83DC83CC803
:1011B0003BC83AC839C838C837C836C835C834C833
:1011C00033C832C831C830C82FC82EC82DC82CC863
:1011D0002BC82AC829C828C827C826C825C824C893
:1011E00023C8EBC921C820C81FC81EC818CA1CC8FC
:1011F0001BC81AC819C818C817C816C815C814C8F3
:1012000040CA83C814C910C80FC80EC80DC80FC97A
:101210000BC80AC809C808C807C863CA05C804C8F3
:0E12200003C8CBC901C845CAFFC7FEC712CA22
:10122E000100000000000000009CF0000000020021
:10123E0000FC60DAF266B6BEE0FEF60000000000CA
:10124E000000EE3E9C7A9E8EBC6E0C70001C002A36
:10125E00FCCEE60AB61E7C00000076DA9C00F0C4D6
:10126E001000EE3E1A7ADE8EBC2E0870001C002A8C
:10127E003ACEE60AB61E3800000076DA000C000000
:0C128E00000000000065000E1E1A180091
:00000001FF
