:100000003BC05FC05EC05DC05CC05BC05AC059C031
:1000100058C057C056C03FC454C053C052C051C04E
:1000200050C04FC04EC04DC04CC04BC04AC049C06C
:1000300048C047C00A46253375000A452E507262F3
:10004000000A452E462E4C4F000A452E72454600AA
:100050000A382E382E382E382E000A25342E3364D6
:1000600008082E000A2D4F4C2D000A5A45724F00E9
:100070000A5348497400C40611241FBECFEFD4E0D0
:10008000DEBFCDBF11E0A0E0B1E0EEEDFEE002C0CA
:1000900005900D92AE36B107D9F721E0AEE6B1E09A
:1000A00001C01D92A238B207E1F710E0CCE3D0E026
:1000B00003C02197FE01D6D6CB33D107D1F7D2D4D6
:1000C000DEC69ECF382F90917E0193FB442740F9E6
:1000D000977F90937E0120E480E090E056EC30938F
:1000E0007C0050937A0060917A0066FD15C06091A3
:1000F000780070917900860F971F21502111EFCF62
:1001000020917E0140FB23F920937E0126E0969505
:1001100087952A95E1F70895E6CFCF93DF93DC0129
:10012000E62F17968C9117979FEF980F811101C0BA
:1001300090E0E83029F417969C93DF91CF910895D1
:10014000EA3051F484E0FD013296EF0119928A956C
:10015000E9F717961C92F1CFED30D9F32E2F2D7FB2
:100160002C3259F4943048F7A90FB11D12968C9196
:100170001297816012968C93E0CF843090F490E0D7
:10018000E0323CF0E0520E2E000CFF0BEF5FFE4F12
:100190009081FD01E80FF11D92838F5F17968C937C
:1001A000CCCF8F3F51F2F9CF282F26952695269553
:1001B0009FEF920F933000F530E0F901EE0FFF1F33
:1001C000E20FF31FAF014E5D5F4F877021E030E01B
:1001D000D90102C0AA0FBB1F8A95E2F7CD01762F85
:1001E000717061FF0EC022A1772339F02A2B22A360
:1001F000FA019291892B808308953A2F3095232319
:10020000F6CF3A2F309521A1232321A322A17723D2
:1002100019F02A2B22A3F0CF2323FCCF6E5FC4CF8B
:1002200062E08AE0C1DFFFCF2F923F924F925F9250
:100230006F927F928F929F92AF92BF92CF92DF92F6
:10024000EF92FF920F931F93CF93DF93CDB7DEB75B
:10025000C850D1400FB6F894DEBF0FBECDBFFC0131
:100260008B015C012FEFA21AB20A6491CE010196B4
:10027000CF5FDE4F99838883C150D1406623E9F078
:10028000653209F449C081E791E047DF2DC1E1E023
:10029000CC5FDE4FE883C450D1405C01C5010196BC
:1002A000F50124912D3299F308F04CC02032F9F079
:1002B0002B3221F1D22E211164C0C85FDE4F0FB660
:1002C000F894DEBF0FBECDBFDF91CF911F910F918C
:1002D000FF90EF90DF90CF90BF90AF909F908F9066
:1002E0007F906F905F904F903F902F900895F1E036
:1002F000C95FDE4FF883C750D140CFCF21E0CA5F3E
:10030000DE4F2883C650D140C8CF40E3CD5FDE4FDB
:100310004883C350D140C1CFCC5FDE4F1882C45058
:10032000D140C95FDE4F1882C750D140CA5FDE4F4F
:100330001882C650D14080E2CD5FDE4F8883C35023
:10034000D140ACCF203309F32D33D1F4F2E0AF0E1E
:10035000B11CFC018491CD5FDE4F8883C350D14036
:10036000882309F4AACF8A3249F4F801F081CD5FDD
:10037000DE4FF883C350D1400E5F1F4FC5018DCFB4
:10038000D22EFC01312C2A3201F598012E5F3F4F0D
:10039000F8013080F2E0AF0EB11CFC018491D82E40
:1003A0008901DD2009F489CF8EE2D816A1F09CE600
:1003B000D91246C2912C2EC02AE0329ED00C1124B4
:1003C0003D2C40ED340ED490319680ED8D0D8A3069
:1003D00098F35F01E6CFC5010196F501D490FAE2EA
:1003E000DF1649F0FC01912C9AE080ED8D0D8A30EA
:1003F00070F15F010BC098012E5F3F4FF8019080B4
:10040000F2E0AF0EB11CFC01D49089014CE680E013
:10041000D41206C0C5010196F501D4905C0181E0BB
:10042000DD2009F44ACFF8E7FD150CF45DC021E6A4
:100430002D15B4F043E5D416F1F098E5D91609F47A
:10044000B3C0E5E2DE1609F04FC065E21CCF999E0D
:10045000D00C11249D2C20ED920ED4903196C5CF56
:10046000EEE9ED0DE73108F03FC00E2E000CFF0B5A
:10047000EF5BF84F0994F801C08081807801F2E0C9
:10048000EF0EF11C911009C0780122E0E20EF11C80
:10049000F801C08081808EEF982EEC2DF82D20E0A1
:1004A00043E7D41227C08081082E000C990B892BBA
:1004B00021F12F5F31962911F3CFCC5FDE4F888178
:1004C000C450D140882339F10C2D182D802F8C1960
:1004D000891518F1CC5FDE4FF881C450D140FF235D
:1004E00011F0931438F18701F5012FEFA21AB20A27
:1004F0006491C4CE849190E0DACF922EDECFCD5FAE
:10050000DE4F6881C350D14081E791E006DE1F5F76
:100510001315A8F3D9CF192DFBCF93E7F801D91202
:1005200007C0608181E791E0F8DD0F5F1F4FCECFFC
:100530006491F8CFCD5FDE4F6881C350D14081E731
:1005400091E0EBDD9394CDCFCC5FDE4F2881C4509A
:10055000D140222331F1F801608181E791E0DDDDB6
:10056000FF24F394F314D0F4CD5FDE4F6881C350C1
:10057000D14081E791E0D1DDF394F4CFCD5FDE4F40
:100580006881C350D14081E791E0C7DDF394F31453
:10059000A8F3F801608181E791E0BFDD0E5F1F4F96
:1005A000A3CFFF24F394F3CF882309F46FC0F8019D
:1005B000C190D190E190F1908F0180E1812CF7E022
:1005C000C85FDE4FF883C850D140CB5FDE4F188242
:1005D000C550D140482E512C612C712CC701B60159
:1005E000A3019201F5D3722FE32FF42F952F862FBD
:1005F000A7019601C72EDE2EEF2EF92E6A3034F0B9
:10060000C85FDE4F8881C850D140860FCB5FDE4F78
:100610002880C550D1402394E1E0F0E0EC0FFD1FAD
:10062000CB5FDE4F9881C550D140E90FF11D805D51
:100630008083241535054605570508F0A1C0E92C2F
:10064000E2184E2D921408F440E050E060E370E0B0
:1006500081E090E08C0F9D1F820D911D09D49214B2
:1006600008F4E12CE20C811091C0CA5FDE4FE881F2
:10067000C650D140E111C4C0C95FDE4FF881C750F8
:10068000D14060E2F11183C0DE2C8EC0F801C19030
:10069000D1900D2C000CEE08FF088ECF882381F03E
:1006A000F801C190D190E190F1908F0182E0812C0E
:1006B00027E2C85FDE4F2883C850D14086CF912CF7
:1006C000F801C190D1900D2C000CEE08FF08EDCF81
:1006D0008823A9F0F801C190D190E190F1908F01A9
:1006E000F7FE30C0F094E094D094C094C11CD11CAB
:1006F000E11CF11C8AE088248394DACF912CF80164
:10070000C190D1900D2C000CEE08FF08E8CF882393
:1007100049F0F801C190D190E190F1908F0180E112
:10072000C6CF912CF801C190D1900D2C000CEE0891
:10073000FF08F4CF882349F0F801C190D190E190EF
:10074000F1908F018AE0B3CF912CF801C190D19044
:100750000D2C000CEE08FF08F4CF882349F0F801B7
:10076000C190D190E190F1908F0188E0A0CF912CC1
:10077000F801C190D1900D2C000CEE08FF08F4CFC9
:10078000CB5FDE4F2882C550D14028CF6DE2DD24FB
:10079000D394DE0CCD5FDE4F2881C350D14020338F
:1007A00089F581E791E0B9DCCC5FDE4F4881C45028
:1007B000D1404423E1F181E090E08C0F9D1F8E0D2C
:1007C000911D7C01CF5FDE4F88819981C150D1405E
:1007D0008E159F0571F5CC5FDE4F9881C450D140D6
:1007E000992309F481CED31408F07ECECD5FDE4F7D
:1007F0006881C350D14081E791E08FDCD394F3CF7F
:100800006BE2C5CFE1E0F0E0EC0FFD1FEE0DF11D56
:100810006083ED2CC9CFCD5FDE4F6881C350D140DE
:1008200081E791E07ADCF394F314A8F3C4CFFD2CB4
:10083000FBCFF70162917F0181E791E06EDCC2CFCF
:1008400048E74D150CF450CE81E68D1564F093E524
:10085000D91609F419CEE8E5912CDE1609F416CF65
:10086000F5E2DF16F0CDEEE9ED0DE73108F03CCE14
:100870000E2E000CFF0BE85AF84F0994CF93DF932C
:10088000CDB7DEB7BE01675F7F4F8F819885CCDC27
:10089000DF91CF9108951F920F920FB60F921124FE
:1008A0000F931F932F933F934F935F936F937F9378
:1008B0008F939F93AF93BF93CF93EF93FF938091C9
:1008C0008001909181018F719927892BD1F496B184
:1008D00092FB992790F980910001891709F4AFC024
:1008E000811109C090917F01903128F490917E018F
:1008F000916090937E0191E089278093000110928E
:100900007F0120917E0123FF2DC08091780090917E
:10091000790040917C0150917D01840F951F909347
:100920007D0180937C0130917B013F5F30937B019F
:10093000303499F436E0969587953A95E1F790939F
:100940007A0180937901822F846080937E011092D6
:100950007D0110927C0110927B0110927C0086EC4C
:1009600080937A00009180011091810100FD44C0C4
:10097000E0917701F0E0E659FE4F62E0808114DCFF
:100980008091770190E00196837099278093770199
:100990008F589E4FFC01C2816C2F661F6627661F11
:1009A0008FE03CDCC6FB662760F98DE137DCC5FBD8
:1009B000662760F98BE132DCC4FB662760F988E0CA
:1009C0002DDCC3FB662760F98CE128DCC2FB6627BF
:1009D00060F98FE123DCC1FB662760F989E01EDC4A
:1009E0006C2F617089E11ADCE0917701F0E0E65943
:1009F000FE4F63E08081D8DBC8019370892B29F416
:100A0000809170018F5F809370010F5F1F4F109373
:100A1000810100938001FF91EF91CF91BF91AF9140
:100A20009F918F917F916F915F914F913F912F9106
:100A30001F910F910F900FBE0F901F90189581116D
:100A400060CF80917F01813108F05BCF8F5F809311
:100A50007F01803109F055CF80917E0182608093C3
:100A60007E014FCF00D000D0CDB7DEB763E08AE083
:100A70009BDB87E691E09A83898361E0E981FA81D3
:100A80008191FA83E98390DB89819A818A5691402A
:100A9000A1F780E880BF8BE380937E0083E08093A2
:100AA0007F0086EE80936400109280008BE080933C
:100AB000810089E790E0909389008093880082E02C
:100AC00080936F008AE691E09A83898362E0E981EE
:100AD000FA818191FA83E98367DB89819A818E5655
:100AE0009140A1F7789480E590E09F938F9381E700
:100AF00091E09F938F93C2DEFFEF24E38CE0F150EF
:100B000020408040E1F700C000008EE0DBDA815336
:100B100093400F900F900F900F90873B910598F0A6
:100B200089E490E09F938F93E1E7F1E0FF93EF93E7
:100B3000A5DE8FEF99E6E8E181509040E040E1F7D3
:100B400000C000006DDB81E0BDDA8C018F3892407F
:100B500088F481E490E09F938F9381E791E09F93E5
:100B60008F938CDEFFEF29E688E1F1502040804032
:100B7000E1F7E6CF80E0A6DA9C0190936F018093C5
:100B80006E012C3E92E0390718F02F3F334041F4BC
:100B90008AE390E09F938F9381E791E09F93E0CF6A
:100BA00024E6209FC001219F900D1124849662EBC2
:100BB00070E0FAD077277F936F9384E390E09F9360
:100BC0008F93E1E7F1E0FF93EF9358DE8FEF94E32B
:100BD000ECE081509040E040E1F700C0000088E088
:100BE00080937E010F900F900F900F900F900F90B9
:100BF00000E010E08AE6282E80E0382E94E6E92E08
:100C000090E0F92E2AE5C22E20E0D22E80917E01BE
:100C100080FD04C090917001953B08F001DB81FFDD
:100C20004CC080906E0190906F018FB7F894209126
:100C3000790130917A018FBF2901612C712CA12C8F
:100C4000B12C481459046A047B04D4F4A4EDB3E035
:100C5000FDD069837A838B839C83A5019401241939
:100C6000350946095709D6D049015A01211530489E
:100C7000410551052CF429EC821691040CF465C051
:100C800080E790E09F938F9381E791E09F938F930C
:100C9000F5DD0F900F900F900F9010927001FFEF05
:100CA00024E38CE0F15020408040E1F700C00000D8
:100CB00080917E018D7F80937E0180917E0182FFF5
:100CC00043C080906E0190906F018FB7F89420918F
:100CD000790130917A018FBF2901612C712CA12CEF
:100CE000B12C481459046A047B04F4F4A4EDB3E075
:100CF000ADD069837A838B839C83A50194012419E9
:100D000035094609570986D0DA01C901801B910BC4
:100D1000A109B1098115E0E89E07A105B10524F4F8
:100D20008031F7E29F07F4F0FF92EF9281E791E0C4
:100D30009F938F93A3DD0F900F900F900F90809152
:100D40007E018B7F80937E0161CF3F922F9281E75E
:100D500091E09F938F9392DD0F900F900F900F90E3
:100D600084019BCF9F938F93DF92CF9281E791E095
:100D70009F938F9383DD109270010F900F900F90CF
:100D80000F900F900F90DBCFE1E7F1E085E691E067
:100D90009183808316821782E3E7F1E084E0DF012C
:100DA0001D928A95E9F70895AA1BBB1B51E107C064
:100DB000AA1FBB1FA617B70710F0A61BB70B881FEB
:100DC000991F5A95A9F780959095BC01CD0108957A
:100DD000A1E21A2EAA1BBB1BFD010DC0AA1FBB1F3F
:100DE000EE1FFF1FA217B307E407F50720F0A21BB1
:100DF000B30BE40BF50B661F771F881F991F1A941E
:100E000069F760957095809590959B01AC01BD0147
:100E1000CF010895052E97FB16F400940FD057FDCF
:100E200005D0D6DF07FC02D046F408C050954095A7
:100E3000309521953F4F4F4F5F4F08959095809586
:100E4000709561957F4F8F4F9F4F0895A29FB0017E
:100E5000B39FC001A39F01D0B29F700D811D1124CB
:100E6000911D0895EE0FFF1F0590F491E02D099458
:100E7000DC0101C06D9341505040E0F70895F894B3
:100E8000FFCF0CCC61CB24CC2FCB2ECB2DCB2CCBBE
:100E90001FCC2ACB29CB28CB27CB26CB5ECC24CB8F
:100EA00023CB22CBE8CA20CB45CC1ECB1DCB2FCCED
:100EB00006CC4ACB23CC18CB17CB16CB15CB1ECCEC
:100EC00013CB12CB11CB10CB0FCB51CC0DCB0CCB0A
:0E0ED0000BCBDACA09CB38CC07CB06CB22CC31
:100EDE000100000000000000009CF0000000020075
:100EEE0000FC60DAF266B6BEE0FEF600000000001E
:100EFE000000EE3E9C7A9E8EBC6E0C70001C002A8A
:100F0E00FCCEE60AB61E7C00000076DA9C00F0C429
:100F1E001000EE3E1A7ADE8EBC2E0870001C002ADF
:100F2E003ACEE60AB61E3800000076DA000C000053
:0E0F3E0000000000008D001314150E1E1A187E
:00000001FF
