:100000003CC060C05FC05EC05DC05CC05BC05AC029
:1000100059C058C057C082C355C054C053C052C005
:1000200051C050C04FC04EC04DC04CC04BC04AC064
:1000300049C048C00A46253375000A452E507262F1
:10004000000A452E462E4C4F000A452E72454600AA
:100050000A382E382E382E382E000A25342E336CCE
:100060006408082E000A2D4F4C2D000A5A45724F85
:10007000000A5348497400005D0411241FBECFEFED
:10008000D4E0DEBFCDBF11E0A0E0B1E0EEE1FCE0E6
:1000900002C005900D92A237B107D9F721E0A2E77F
:1000A000B1E001C01D92A338B207E1F710E0CDE343
:1000B000D0E003C02197FE019ED5CC33D107D1F704
:1000C00009D4ABC59DCFE82FE695E695E695E150BE
:1000D000E33030F5F0E0EE0FFF1FE559FE4F0190E1
:1000E000F081E02D3097E1F0282F277081E090E03B
:1000F00001C0880F2A95EAF7DF01119761FF03C05D
:100100002C91282B04C03C91282F209523232C933D
:10011000208160FF02C0822B02C0809582238083F1
:100120000895611102C062E001C063E0CCCFFC0120
:100130008781882319F09FEF980F01C090E0683005
:1001400011F4978308956A3049F4DF011296CF01C4
:1001500006968A179B0721F01D92FBCF6D3011F494
:1001600017820895262F2D7F2C3241F49430F0F41D
:10017000E90FF11D9281916092830895843090F48B
:10018000282F30E060323CF0A62F660FBB0BA55144
:10019000BF4F9C9101C090E0DF01A20FB31F1296E8
:1001A0009C9302C08F3F11F08F5F878308952F9239
:1001B0003F924F925F926F927F928F929F92AF92F7
:1001C000BF92CF92DF92EF92FF920F931F93CF9344
:1001D000DF93CDB7DEB7C250D1400FB6F894DEBF83
:1001E0000FBECDBF4B017C012FEFE21AF20AFC01DA
:1001F0006491662309F43DC2653259F4A12CCF5FA6
:10020000DE4F1882C150D140212C40E2C42E84011F
:100210000BC08BE791E08BDFEDC12E3260F0203315
:1002200089F430E3C32E7C01C7010196F7012491C4
:100230002D3299F70AC0203259F02B3211F52224C1
:100240002394F1CF2D3359F01CC0AA24A394EBCFF3
:10025000F1E0CF5FDE4FF883C150D140E4CF22E020
:10026000E20EF11CFC01C490CC2009F402C2FAE2B7
:10027000CF1611F0C701D7CFF801C0800E5F1F4F16
:10028000F9CF722E222309F4F4C1FAE22F130CC025
:1002900098012E5F3F4FF801B080F2E0EF0EF11CA5
:1002A000FC017490890112C0FC01B12C7F0180ED2A
:1002B000870D8A3058F4872D2AE0B29E800D1124D4
:1002C00020EDB22EB80E74903196F0CF772009F45D
:1002D000D0C13EE2731229C0C7010196F7017490A4
:1002E000FAE27F120CC098012E5F3F4FF801D080D8
:1002F000F2E0EF0EF11CFC017490890112C0FC01C8
:10030000D12C7F0180ED870D8A3058F4872D2AE0AB
:10031000D29E800D112490EDD92ED80E7490319676
:10032000F0CF3CE673120CC004C02CE6721281C000
:10033000D12CC7010196F70174907C0181E001C0C6
:1003400080E0772009F495C1F4E67F1609F476C0C1
:10035000F715B4F028E5721609F485C0271544F0A6
:1003600035E2731609F486C043E5741631F141C1D4
:1003700092E6791609F46CC0E3E67E16C1F139C144
:10038000F3E77F16D1F0F7154CF029E6721609F461
:1003900055C03FE6731609F480C02BC145E77416BB
:1003A00009F47FC098E7791631F023C198E77912F4
:1003B00020C1D12C80E030E057C0D11002C08EEFB8
:1003C000D82E4801E2E08E0E911CF8015080418049
:1003D000E52DF42D612C23E7721202C0808101C04B
:1003E000849181110DC110C1F3E67F1202C1A110E9
:1003F0000AC0DD24D394DB1430F46C2D8BE791E03C
:1004000096DED394F8CF4801F2E08F0E911CF801EC
:1004100060818BE791E08BDEAA2009F4EBC011E04C
:100420001B1508F0E7C06C2D8BE791E080DE1F5FA5
:10043000F7CF34E6731210C0D12C80E030E041E0F9
:1004400032C04715A4F4E2E67E12CECFD12C80E074
:1004500030E040E022E028C037158CF048E5741207
:10046000F0CFD12C80E031E040E020E11DC085E2FA
:100470007812BBC065E28BE791E059DEBAC023E792
:10048000721609F49CCF2715DCF039E67316A1F239
:100490004FE67412AEC0D12C80E030E040E028E09E
:1004A00003C030E040E02AE0882389F04801F4E00E
:1004B0008F0E911CF801608171818281938112C03D
:1004C00085E7781273CFD12C30E02AE040E0480174
:1004D000F2E08F0E911CF80160817181072E000CF3
:1004E000880B990B442359F097FF09C0909580958C
:1004F000709561957F4F8F4F9F4F01E001C000E0E5
:10050000332339F0F7E0CE5FDE4FF883C250D1409D
:1005100006C037E2CE5FDE4F3883C250D140312C67
:10052000422E512C612C712CA30192011CD3E62F79
:10053000A62FCA01B901EA3034F0CE5FDE4FA881A0
:10054000C250D140AE0F11E0130DE1E0F0E0EC0F2E
:10055000FD1FE30DF11DA05DA083232B242B252B74
:1005600011F0312EE1CF1D1550F4E1E0F0E0EC0F79
:10057000FD1FE10FF11D40E340831F5FF4CF011128
:100580000BC0211069C0CF5FDE4F8881C150D140C0
:10059000811164C0012F09C06DE201E0010FF0E399
:1005A000CF125EC08BE791E0C2DDA11009C0D02E52
:1005B000DB1430F46C2D8BE791E0B9DDD394F8CFE8
:1005C000112349F0FE01E10FF11D60818BE791E0FD
:1005D000AEDD1150F5CFAA2069F00B1558F46C2D43
:1005E0008BE791E0A4DD0F5FF8CF93E5791609F46E
:1005F000E6CE4801C7010196F70164917C01F9CD6F
:1006000063943196D610E7CEAA20E9F0052D142D7B
:10061000802F8519861568F433E7F801731202C03C
:10062000608101C064918BE791E081DD0F5F1F4F16
:10063000EFCFAA20F9F26B14E8F66C2D8BE791E06E
:1006400076DD6394F8CF162D1B1500F76C2D8BE724
:1006500091E06DDD1F5FF8CF6BE29FCF60E29DCF31
:10066000E1E0F0E0EC0FFD1FE10FF11D6083102FC2
:100670009CCFCE5FDE4F0FB6F894DEBF0FBECDBF6E
:10068000DF91CF911F910F91FF90EF90DF90CF906E
:10069000BF90AF909F908F907F906F905F904F90A2
:1006A0003F902F90089590917A0193FB442740F951
:1006B000977F90937A0190E020E030E08F70806225
:1006C00066EC80937C0060937A0050917A0056FD2E
:1006D000FCCF50917900250F311D9F5F903889F72D
:1006E00080917A0140FB83F980937A01C901880FD8
:1006F000892F881F990B9195089562E08AE0E3DCC9
:10070000FFCFCF93DF93CDB7DEB7BE01675F7F4FDB
:100710008F8198854CDDDF91CF9108951F920F92C4
:100720000FB60F9211242F933F934F935F936F93C4
:100730007F938F939F93AF93BF93CF93DF93EF9369
:10074000FF93809176018F7161F596B192FB9927A5
:1007500090F980910001891791F0811109C0909161
:100760007501903128F490917A01916090937A010B
:1007700091E08927809300011092750112C08111C8
:1007800010C080917501813118F48F5F80937501DD
:1007900080917501803129F480917A018260809383
:1007A0007A0120917A0123FF2AC03091790080914B
:1007B000730190917401830F911D90937401809344
:1007C0007301309172013F5F30937201303889F4C8
:1007D000880F892F881F990B919580937801822F1C
:1007E000846080937A0110927401109273011092C8
:1007F000720180E280937C0086EC80937A00D09135
:100800007601D0FD44C0E0918101F0E0EF5FFE4F42
:1008100062E0808158DC8091810190E001968370D4
:10082000992780938101FC01E558FE4FC2816C2F0E
:10083000661F6627661F8FE074DCC6FB662760F9BB
:100840008DE16FDCC5FB662760F98BE16ADCC4FBD8
:10085000662760F988E065DCC3FB662760F98CE1F8
:1008600060DCC2FB662760F98FE15BDCC1FB6627B9
:1008700060F989E056DC6C2F617089E152DCE0910F
:100880008101F0E0EF5FFE4F63E080811CDCDF5F01
:10089000D0937601FF91EF91DF91CF91BF91AF910E
:1008A0009F918F917F916F915F914F913F912F9188
:1008B0000F900FBE0F901F901895EBE7F1E089E0C5
:1008C00091E09183808316821782128213821482B0
:1008D0001582089563E08AE0F6DB61E083E1F3DBF3
:1008E00061E084E1F0DB61E085E1EDDB80E880BF81
:1008F0008BE380937E0083E080937F0086EE80937D
:100900006400109280008BE0809381008CE790E07F
:10091000909389008093880082E080936F00C1E00B
:10092000D1E062E08991CFDB21E0C530D207C9F781
:10093000789480E590E09F938F93CBE7D1E0DF93AD
:10094000CF93DFDE2FEF84E39CE021508040904086
:10095000E1F700C000008EE0A6DE0F900F900F9030
:100960000F90883C18F489E490E007C081E09BDE9A
:10097000182F833A88F481E490E09F938F93DF935C
:10098000CF93BFDE2FEF89E698E121508040904061
:10099000E1F700C00000B1DE80E085DE80937901E0
:1009A0008E5B813418F08AE390E0E7CF24E6129F53
:1009B000C00111248C5A9F436CE270E0C0D07F9339
:1009C0006F9384E390E09F938F93DF93CF9399DEAF
:1009D0002FEF84E39CE0215080409040E1F700C07D
:1009E000000088E080937A010F900F900F900F9095
:1009F0000F900F9081E7282E80E0382ECBE7D1E0D2
:100A00000BE610E095E6E92E90E0F92E2AE5C22EDD
:100A100020E0D22E80917A0180FD6FDE81FF3EC002
:100A200040907801512C612C712C80907901912C8F
:100A3000A12CB12C481459046A047B0489F0A4ED5C
:100A4000B3E0A3019201CDD0A50194012419350989
:100A500046095709AAD0293C3105410551052CF01A
:100A60003F922F92DF93CF9306C0209377011F937D
:100A70000F93DF93CF9345DE0F900F900F900F9061
:100A80002FEF84E39CE0215080409040E1F700C0CC
:100A9000000080917A018D7F80937A0180917A01A4
:100AA00082FF4CC040907801512C612C712C8090B9
:100AB0007901912CA12CB12C481459046A047B04AF
:100AC000E9F0A4EDB3E0A30192018BD0A50194015C
:100AD000241935094609570968D0809177014901E1
:100AE0005A01881A9108A108B108D501C40120E172
:100AF000821627E29206A104B10454F0FF92EF920D
:100B0000DF93CF93FEDD0F900F900F900F9011C0E9
:100B1000BF93AF939F938F92DF92CF92DF93CF9348
:100B2000F0DD8DB79EB708960FB6F8949EBF0FBE46
:100B30008DBF80917A018B7F80937A016BCFAA1B46
:100B4000BB1B51E107C0AA1FBB1FA617B70710F0B8
:100B5000A61BB70B881F991F5A95A9F780959095EA
:100B6000BC01CD010895A1E21A2EAA1BBB1BFD01F9
:100B70000DC0AA1FBB1FEE1FFF1FA217B307E4077C
:100B8000F50720F0A21BB30BE40BF50B661F771FD4
:100B9000881F991F1A9469F76095709580959095B4
:100BA0009B01AC01BD01CF010895052E97FB16F402
:100BB00000940FD057FD05D0D6DF07FC02D046F4D5
:100BC00008C050954095309521953F4F4F4F5F4F4E
:100BD000089590958095709561957F4F8F4F9F4FA9
:100BE00008950FD0A59F900DB49F900DA49F800DE8
:100BF000911D11240895EE0FFF1F0590F491E02D33
:100C00000994A29FB001B39FC001A39F01D0B29FDE
:0E0C1000700D811D1124911D0895F894FFCFE1
:100C1E00010E1E1A180000000097000000000000D0
:100C2E000000009CF0000000020000FC60DAF2669A
:100C3E00B6BEE0FEF600000000000000EE3E9C7A1C
:100C4E009E8EBC6E0C70001C002AFCCEE60AB61EF0
:100C5E007C00000076DA9C00F0C41000EE3E1A7A9A
:100C6E00DE8EBC2E0870001C002A3ACEE60AB61E96
:100C7E003800000076DA000C000000250028002B5A
:020C8E00000064
:00000001FF
