:100000003CC060C05FC05EC05DC05CC05BC05AC029
:1000100059C058C057C03BC455C054C053C052C04B
:1000200051C050C04FC04EC04DC04CC04BC04AC064
:1000300049C048C00A46253375000A452E507262F1
:10004000000A452E462E4C4F000A452E72454600AA
:100050000A382E382E382E382E000A25342E336CCE
:100060006408082E000A2D4F4C2D000A5A45724F85
:10007000000A534849740000900611241FBECFEFB8
:10008000D4E0DEBFCDBF11E0A0E0B1E0EAE8FEE0E1
:1000900002C005900D92AE36B107D9F721E0AEE669
:1000A000B1E001C01D92A238B207E1F710E0CDE344
:1000B000D0E003C02197FE019FD6CC33D107D1F702
:1000C000CED4B3C69DCF90917E0193FB442740F9D7
:1000D000977F90937E0190E820E030E0806266ECAC
:1000E00080937C0060937A0050917A0056FD14C092
:1000F00050917900250F311D91509111F1CF8091D0
:100100007E0140FB83F980937E01C901880F892F0E
:10011000881F990B91950895E7CFCF93DF93DC016A
:10012000E62F17968C9117979FEF980F811101C0BA
:1001300090E0E83029F417969C93DF91CF910895D1
:10014000EA3051F484E0FD013296EF0119928A956C
:10015000E9F717961C92F1CFED30D9F32E2F2D7FB2
:100160002C3259F4943048F7A90FB11D12968C9196
:100170001297816012968C93E0CF843090F490E0D7
:10018000E0323CF0E0520E2E000CFF0BEF5FFE4F12
:100190009081FD01E80FF11D92838F5F17968C937C
:1001A000CCCF8F3F51F2F9CF282F26952695269553
:1001B0009FEF920F9330F0F430E0F901EE0FFF1F44
:1001C000E20FF31FAF014E5D5F4F877021E030E01B
:1001D00001C0220F8A95EAF7762F717081A192A152
:1001E00061FF0DC0772339F0922B92A3FA0131976A
:1001F000822B80830895622F60959623F6CF422F3D
:100200004095842381A3772319F0922B92A3F2CFF8
:100210009423FCCF6E5FC8CF62E08AE0C5DFFFCFDA
:100220002F923F924F925F926F927F928F929F9206
:10023000AF92BF92CF92DF92EF92FF920F931F93F4
:10024000CF93DF93CDB7DEB7C850D1400FB6F89447
:10025000DEBF0FBECDBFFC018B015C012FEFA21AE8
:10026000B20A6491CE010196CF5FDE4F99838883F5
:10027000C150D1406623E9F0653209F449C082E7F4
:1002800091E04BDF2DC1E1E0CC5FDE4FE883C4504D
:10029000D1405C01C5010196F50124912D3299F3FD
:1002A00008F04CC02032F9F02B3221F1D22E21116E
:1002B00064C0C85FDE4F0FB6F894DEBF0FBECDBF7F
:1002C000DF91CF911F910F91FF90EF90DF90CF9032
:1002D000BF90AF909F908F907F906F905F904F9066
:1002E0003F902F900895F1E0C95FDE4FF883C7502B
:1002F000D140CFCF21E0CA5FDE4F2883C650D14026
:10030000C8CF40E3CD5FDE4F4883C350D140C1CF5B
:10031000CC5FDE4F1882C450D140C95FDE4F1882D7
:10032000C750D140CA5FDE4F1882C650D14080E22C
:10033000CD5FDE4F8883C350D140ACCF203309F36B
:100340002D33D1F4F2E0AF0EB11CFC018491CD5FEE
:10035000DE4F8883C350D140882309F4AACF8A3264
:1003600049F4F801F081CD5FDE4FF883C350D140EE
:100370000E5F1F4FC5018DCFD22EFC01312C2A32CA
:1003800001F598012E5F3F4FF8013080F2E0AF0E8B
:10039000B11CFC018491D82E8901DD2009F489CF9C
:1003A0008EE2D816A1F09CE6D91246C2912C2EC03E
:1003B0002AE0329ED00C11243D2C40ED340ED49016
:1003C000319680ED8D0D8A3098F35F01E6CFC5013F
:1003D0000196F501D490FAE2DF1649F0FC01912C68
:1003E0009AE080ED8D0D8A3070F15F010BC09801AD
:1003F0002E5F3F4FF8019080F2E0AF0EB11CFC0180
:10040000D49089014CE680E0D41206C0C501019663
:10041000F501D4905C0181E0DD2009F44ACFF8E7D2
:10042000FD150CF45DC021E62D15B4F043E5D4169E
:10043000F1F098E5D91609F4B3C0E5E2DE1609F04B
:100440004FC065E21CCF999ED00C11249D2C20ED4D
:10045000920ED4903196C5CFEEE9ED0DE73108F05C
:100460003FC00E2E000CFF0BE95EF84F0994F80117
:10047000C08081807801F2E0EF0EF11C911009C07C
:10048000780122E0E20EF11CF801C08081808EEF3D
:10049000982EEC2DF82D20E043E7D41227C0808160
:1004A000082E000C990B892B21F12F5F3196291111
:1004B000F3CFCC5FDE4F8881C450D140882339F11F
:1004C0000C2D182D802F8C19891518F1CC5FDE4F5B
:1004D000F881C450D140FF2311F0931438F1870103
:1004E000F5012FEFA21AB20A6491C4CE849190E074
:1004F000DACF922EDECFCD5FDE4F6881C350D14080
:1005000082E791E00ADE1F5F1315A8F3D9CF192DFA
:10051000FBCF93E7F801D91207C0608182E791E031
:10052000FCDD0F5F1F4FCECF6491F8CFCD5FDE4F64
:100530006881C350D14082E791E0EFDD9394CDCF45
:10054000CC5FDE4F2881C450D140222331F1F80125
:10055000608182E791E0E1DDFF24F394F314D0F4AD
:10056000CD5FDE4F6881C350D14082E791E0D5DD99
:10057000F394F4CFCD5FDE4F6881C350D14082E762
:1005800091E0CBDDF394F314A8F3F801608182E7E6
:1005900091E0C3DD0E5F1F4FA3CFFF24F394F3CF91
:1005A000882309F46FC0F801C190D190E190F190D7
:1005B0008F0180E1812CF7E0C85FDE4FF883C850DF
:1005C000D140CB5FDE4F1882C550D140482E512C10
:1005D000612C712CC701B601A3019201C5D3722F02
:1005E000E32FF42F952F862FA7019601C72EDE2E1D
:1005F000EF2EF92E6A3034F0C85FDE4F8881C85084
:10060000D140860FCB5FDE4F2880C550D140239468
:10061000E1E0F0E0EC0FFD1FCB5FDE4F9881C550AD
:10062000D140E90FF11D805D808324153505460515
:10063000570508F0A1C0E92CE2184E2D921408F4D9
:1006400040E050E060E370E081E090E08C0F9D1F9F
:10065000820D911DE3D3921408F4E12CE20C811079
:1006600091C0CA5FDE4FE881C650D140E111C4C0DD
:10067000C95FDE4FF881C750D14060E2F11183C0FD
:10068000DE2C8EC0F801C190D1900D2C000CEE082C
:10069000FF088ECF882381F0F801C190D190E190BE
:1006A000F1908F0182E0812C27E2C85FDE4F288322
:1006B000C850D14086CF912CF801C190D1900D2C1B
:1006C000000CEE08FF08EDCF8823A9F0F801C190D7
:1006D000D190E190F1908F01F7FE30C0F094E0945A
:1006E000D094C094C11CD11CE11CF11C8AE0882468
:1006F0008394DACF912CF801C190D1900D2C000C8D
:10070000EE08FF08E8CF882349F0F801C190D190A6
:10071000E190F1908F0180E1C6CF912CF801C1905A
:10072000D1900D2C000CEE08FF08F4CF882349F07F
:10073000F801C190D190E190F1908F018AE0B3CFA0
:10074000912CF801C190D1900D2C000CEE08FF08FF
:10075000F4CF882349F0F801C190D190E190F19055
:100760008F0188E0A0CF912CF801C190D1900D2C81
:10077000000CEE08FF08F4CFCB5FDE4F2882C55097
:10078000D14028CF6DE2DD24D394DE0CCD5FDE4F67
:100790002881C350D140203389F582E791E0BDDC48
:1007A000CC5FDE4F4881C450D1404423E1F181E069
:1007B00090E08C0F9D1F8E0D911D7C01CF5FDE4F51
:1007C00088819981C150D1408E159F0571F5CC5F0C
:1007D000DE4F9881C450D140992309F481CED314BF
:1007E00008F07ECECD5FDE4F6881C350D14082E7F6
:1007F00091E093DCD394F3CF6BE2C5CFE1E0F0E07E
:10080000EC0FFD1FEE0DF11D6083ED2CC9CFCD5F08
:10081000DE4F6881C350D14082E791E07EDCF394E3
:10082000F314A8F3C4CFFD2CFBCFF70162917F0135
:1008300082E791E072DCC2CF48E74D150CF450CE50
:1008400081E68D1564F093E5D91609F419CEE8E533
:10085000912CDE1609F416CFF5E2DF16F0CDEEE9A5
:10086000ED0DE73108F03CCE0E2E000CFF0BE25DE3
:10087000F84F0994CF93DF93CDB7DEB7BE01675F22
:100880007F4F8F819885CCDCDF91CF9108951F92A7
:100890000F920FB60F9211240F931F932F933F9334
:1008A0004F935F936F937F938F939F93AF93BF9378
:1008B000CF93EF93FF9380918001909181018F718D
:1008C0009927892BD1F496B192FB992790F98091C1
:1008D0000001891709F4B0C0811109C090917F010E
:1008E000903128F490917E01916090937E0191E087
:1008F00089278093000110927F0120917E0123FFC0
:100900002AC03091790080917C0190917D01830F04
:10091000911D90937D0180937C0130917B013F5F1D
:1009200030937B01303889F4880F892F881F990B09
:10093000919580937A01822F846080937E0110923A
:100940007D0110927C0110927B0180E280937C00FB
:1009500086EC80937A00009180011091810100FD66
:1009600044C0E0917801F0E0E659FE4F62E08081FA
:100970001BDC8091780190E0019683709927809329
:1009800078018E589E4FFC01C2816C2F661F66272E
:10099000661F8FE03FDCC6FB662760F98DE13ADC1D
:1009A000C5FB662760F98BE135DCC4FB662760F97F
:1009B00088E030DCC3FB662760F98CE12BDCC2FBEE
:1009C000662760F98FE126DCC1FB662760F989E0C4
:1009D00021DC6C2F617089E11DDCE0917801F0E091
:1009E000E659FE4F63E08081DFDBC8019370892BFD
:1009F00049F4809170019091710101969093710179
:100A0000809370010F5F1F4F10938101009380014D
:100A1000FF91EF91CF91BF91AF919F918F917F9176
:100A20006F915F914F913F912F911F910F910F9077
:100A30000FBE0F901F90189581115FCF80917F019D
:100A4000813108F05ACF8F5F80937F01803109F0A8
:100A500054CF80917E01826080937E014ECF00D082
:100A600000D0CDB7DEB763E08AE09EDB87E691E099
:100A70009A83898361E0A981BA818D91BA83A98320
:100A800093DBE981FA81EA56F140A1F780E880BF63
:100A90008BE380937E0083E080937F0086EE8093DB
:100AA0006400109280008BE08093810089E790E0E1
:100AB000909389008093880082E080936F008AE69B
:100AC00091E09A83898362E0A981BA818D91BA838A
:100AD000A9836ADBE981FA81EE56F140A1F77894A7
:100AE00080E590E09F938F9382E791E09F938F93AF
:100AF000C1DEBFEFE4E3FCE0B150E040F040E1F7DD
:100B000000C000008EE0DFDA8C5C0F900F900F9039
:100B10000F908E3298F089E490E09F938F9382E754
:100B200091E09F938F93A6DEBFEFE9E6F8E1B15025
:100B3000E040F040E1F700C000006EDB81E0C3DA86
:100B4000182F833A18F481E490E0E7CF80E0BBDA15
:100B500080936F018E5B813418F08AE390E0DDCFE3
:100B600024E6129FC00111248C5A9F436DE270E06D
:100B7000E7D07F936F9384E390E09F938F9382E716
:100B800091E09F938F9376DEBFEFE4E3FCE0B150FA
:100B9000E040F040E1F700C0000088E080937E0173
:100BA0000F900F900F900F900F900F9085E6282ECA
:100BB00080E0382E0AE510E080917E0180FD07C0BC
:100BC0002091700130917101253B310508F024DB43
:100BD00081FF44C080907A01912CA12CB12CC0904F
:100BE0006F01D12CE12CF12C8C149D04AE04BF04B8
:100BF000B1F0A4EDB3E0A5019401F4D069837A8348
:100C00008B839C83A7019601281939094A095B093E
:100C1000CDD0293C3105410551050CF467C081E771
:100C200090E09F938F93E2E7F1E0FF93EF9322DE52
:100C30000F900F900F900F90109271011092700111
:100C40008FEF94E3ACE081509040A040E1F700C00A
:100C5000000080917E018D7F80937E0180917E01D6
:100C600082FF43C080907A01912CA12CB12CC090BE
:100C70006F01D12CE12CF12C40906E01512C612C94
:100C8000712C8C149D04AE04BF04F9F0A4EDB3E004
:100C9000A5019401A7D069837A838B839C83A701E4
:100CA0009601281939094A095B0980D0DA01C9017E
:100CB00084199509A609B7092C013D0190E149164F
:100CC00097E2590661047104B4F03F922F92A2E7B3
:100CD000B1E0BF93AF93CEDD0F900F900F900F90C8
:100CE00080917E018B7F80937E0166CF20936E0181
:100CF0008BE690E096CF7F926F925F924F921F9318
:100D00000F9382E791E09F938F93B4DD109271016E
:100D1000109270010FB6F894DEBF0FBECDBFE0CFCA
:100D2000E2E7F1E085E691E0918380831682178205
:100D3000E4E7F1E084E0DF011D928A95E9F7089588
:100D4000AA1BBB1B51E107C0AA1FBB1FA617B707F1
:100D500010F0A61BB70B881F991F5A95A9F780950D
:100D60009095BC01CD010895A1E21A2EAA1BBB1BD0
:100D7000FD010DC0AA1FBB1FEE1FFF1FA217B30767
:100D8000E407F50720F0A21BB30BE40BF50B661F7D
:100D9000771F881F991F1A9469F760957095809541
:100DA00090959B01AC01BD01CF010895052E97FBE5
:100DB00016F400940FD057FD05D0D6DF07FC02D003
:100DC00046F408C050954095309521953F4F4F4FC0
:100DD0005F4F089590958095709561957F4F8F4FE7
:100DE0009F4F08950FD0A59F900DB49F900DA49F85
:100DF000800D911D11240895EE0FFF1F0590F491B1
:100E0000E02D0994A29FB001B39FC001A39F01D020
:100E1000B29F700D811D1124911D0895DC0101C048
:100E20006D9341505040E0F70895F894FFCF32CCD5
:100E300087CB4ACC55CB54CB53CB52CB45CC50CBA4
:100E40004FCB4ECB4DCB4CCB84CC4ACB49CB48CBB4
:100E50000ECB46CB6BCC44CB43CB55CC2CCC70CB00
:100E600049CC3ECB3DCB3CCB3BCB44CC39CB38CB38
:100E700037CB36CB35CB77CC33CB32CB31CB00CB6A
:0A0E80002FCB5ECC2DCB2CCB48CC41
:100E8A000100000000000000009CF00000000200C9
:100E9A0000FC60DAF266B6BEE0FEF6000000000072
:100EAA000000EE3E9C7A9E8EBC6E0C70001C002ADE
:100EBA00FCCEE60AB61E7C00000076DA9C00F0C47E
:100ECA001000EE3E1A7ADE8EBC2E0870001C002A34
:100EDA003ACEE60AB61E3800000076DA000C0000A8
:0E0EEA0000000000008D001314150E1E1A18D3
:00000001FF
